:100000000C9425010C9456010C9456010C94560145
:100010000C9456010C9456010C9456010C94560104
:100020000C9456010C9456010C9456010C945601F4
:100030000C9456010C9456010C9456010C945601E4
:100040000C9456010C9456010C9456010C945601D4
:100050000C9456010C9456010C9456010C94E00437
:100060000C9456010C9456010C9456010C945601B4
:100070000C9456010C9456010C9456010C945601A4
:100080000C9456010C9456010C9456010C94560194
:100090000C9456010C9456010C9456010C942A05AC
:1000A0000C9456010C9456010C9456010C94560174
:1000B0000C9456010C9456010C9456010C94560164
:1000C0000C9456010C9456010C9456010C94560154
:1000D0000C9456010C9456010C9456010C94560144
:1000E0000C9456010C946A020C94D1020C94C60133
:1000F0000C94D2020C943E040C943D020C943C02ED
:100100000C94DE010C94C2010C943B020C94B801D7
:100110000C948D010C94D0010C94F4020C94A20464
:100120000C94BE010C94AB010C94AE010C94D40160
:100130000C94A3010C94FB020C94DA010C94280398
:100140000C94B4010C94CC010C94A7010C9488017C
:100150000C949F010C944E060C94E10200002200C6
:10016000250028002B002E00310034000201000081
:10017000050108010B010505050507050808080824
:10018000020202020A0A080804040404010101012F
:10019000010101010303030303030303040707072A
:1001A0000C0C0C0C0C0C0C0C0202020206060606CF
:1001B000060606060B0B0B0B0B0B0B0B010210209C
:1001C000200808102040102040800201020108048D
:1001D0000201010204081020408080402010080421
:1001E000020180040201804020100804020108047A
:1001F00002010102040810204080010204081020BE
:10020000408000000A0B02090C0D0E0807030401D0
:1002100000000000000000000000000000000000DE
:1002200000000000000000000000000000001211AB
:1002300010000000000000000000000000000000AE
:1002400000000000000000004E0611241FBECFEF8A
:10025000D1E2DEBFCDBF00E00CBF12E0A0E0B2E013
:10026000ECE1FFE000E00BBF02C007900D92AC3361
:10027000B107D9F723E0ACE3B2E001C01D92A7318A
:10028000B207E1F711E0C5E2D1E000E006C0219736
:100290000109802FFE010E948407C432D10780E04B
:1002A0000807A9F70E946E060C948C070C940000B6
:1002B000282F30E0F901EE5FFD4F9491F901E454ED
:1002C000FE4F44912A583E4FF9012491222309F40C
:1002D00035C0992311F191509231F8F4E92FF0E0F3
:1002E0008827EA58FE4F8F4F0C948407A701AB0173
:1002F00088019F01A3018D01AE01B401B801BE01C7
:10030000C201C601CC01D0018D01D401DA01DE01A8
:10031000809180008F7780938000E22FF0E0EE0FD5
:10032000FF1FE45AFE4FA591B4918FB7F894EC915A
:10033000611148C040954E234C938FBF0895809122
:1003400080008F7DE8CF80918000877FE4CF84B5E7
:100350008F7784BDE2CF84B58F7DFBCF8091B000D5
:100360008F778093B000D9CF8091B0008F7DF9CF87
:10037000809190008F7780939000CFCF80919000F4
:100380008F7DF9CF80919000877FF5CF8091A0007D
:100390008F778093A000C1CF8091A0008F7DF9CF8F
:1003A0008091A000877FF5CF809120018F77809387
:1003B0002001B3CF809120018F7DF9CF8091200162
:1003C000877FF5CF4E2BB8CF3FB7F8948091FB02D3
:1003D0009091FC02A091FD02B091FE0226B5A89B6F
:1003E00005C02F3F19F00196A11DB11D3FBFBA2FC7
:1003F000A92F982F8827BC01CD01620F711D811D87
:10040000911D42E0660F771F881F991F4A95D1F70B
:1004100008958F929F92AF92BF92CF92DF92EF9208
:10042000FF924B015C010E94E4016B017C010E9480
:10043000E4016C197D098E099F09683E73408105AE
:100440009105A8F321E0821A9108A108B10888EE6D
:10045000C80E83E0D81EE11CF11C81149104A10494
:10046000B10429F7FF90EF90DF90CF90BF90AF904D
:100470009F908F90089508950895AF92BF92CF9264
:10048000DF92EF92FF920F931F93CF93DF936C0154
:100490007B018B01040F151FEB015E01AE18BF0835
:1004A000C017D10759F06991D601ED91FC910190E7
:1004B000F081E02DC6011995892B79F7C501DF91EF
:1004C000CF911F910F91FF90EF90DF90CF90BF9051
:1004D000AF900895089520917D02260F3327331F92
:1004E00021323105ECF42091C602FC0190E080E05D
:1004F000243069F082E00895A0917D022191AC0141
:10050000435A5D4FA40FB52FB11D2C93019686174A
:1005100098F380917D02680F60937D0280E00895DA
:1005200081E008951092C60281E08093C502109286
:10053000A00261E084E10E94580161E085E10E942F
:100540005801E9EBF0E080818E7F808380818D7F90
:10055000808388E48093B80085E48093BC0008958C
:10056000CF93DF9391E090935C028823B9F0C09120
:10057000B800D091BA008091BC008A7B8093BC0007
:1005800060E084E10E94580160E085E10E9458012A
:100590000E949202D093BA00C093B800DF91CF912D
:1005A00008950895E091F5028091F402E81730F47F
:1005B000F0E0E45CFD4F808190E008958FEF9FEFC5
:1005C00008959091F5028091F4022FEF3FEF981774
:1005D00048F4E92FF0E0E45CFD4F208130E09F5FBC
:1005E0009093F502C90108958091F4029091F5026B
:1005F000891B990B0895CF92DF92EF92FF920F9390
:100600001F93CF93DF937C01CB018A012091CC0211
:10061000222389F0EB016B01C40ED51ECC15DD053C
:1006200069F06991D701ED91FC910190F081E02D85
:10063000C7011995F3CF642F0E946B02C801DF91A7
:10064000CF911F910F91FF90EF90DF90CF90089581
:10065000CF93DF931F92CDB7DEB769832091CC0291
:100660002223F9F02091F202203258F021E030E00C
:10067000FC013383228390E080E00F90DF91CF91E3
:1006800008958091F302E82FF0E0E353FD4F998144
:1006900090838F5F8093F3028093F20281E090E079
:1006A000ECCF61E0CE0101960E946B02F7CFCF92B2
:1006B000DF92EF92FF920F931F93CF93DF93FC0192
:1006C000C48121E02093CC02C093ED021092F3028A
:1006D0001092F2028385682B8FEF92E00E9428032C
:1006E000D091F202D13208F092C00E94E4016B0175
:1006F0007C018091C602811165C082E08093C602B0
:1007000081E08093C5028FEF8093C4021092C302F0
:10071000D093C202ADECB2E0E2EAF2E080E0D8139E
:1007200085C01092A1028091A102CC0FC82BC0936A
:10073000A1028091A002813009F07CC01092A00239
:100740000E94E4016B017C018091A1028093BB00B7
:100750008091C8029091C902A091CA02B091CB02C7
:10076000892B8A2B8B2B99F00E94E4010091C802FF
:100770001091C9022091CA023091CB026C197D09F7
:100780008E099F090617170728073907E0F180919E
:10079000BC0083FDD9CF85EC8093BC000E94E401AE
:1007A0006B017C018091C602823009F445C08091C2
:1007B000C4028F3F61F18091C402803241F1809187
:1007C000C40225C08091C8029091C902A091CA02BA
:1007D000B091CB02892B8A2B8B2B09F48ACF0E94F4
:1007E000E4010091C8021091C9022091CA0230911F
:1007F000CB026C197D098E099F0906171707280778
:10080000390708F076CF8091C7020E94B00210929B
:10081000F3021092F2021092CC02DF91CF911F915D
:100820000F91FF90EF90DF90CF9008959D9191935D
:100830008F5F75CF85EEB0CF8091C8029091C902CD
:10084000A091CA02B091CB02892B8A2B8B2B09F481
:10085000A9CF0E94E4010091C8021091C902209121
:10086000CA023091CB026C197D098E099F090617C7
:1008700017072807390708F095CFC5CF90E080E02B
:1008800008950F931F93CF938C01C62F0E94570397
:100890006C2F6460C8010E9457036C2F6B7FC801E6
:1008A0000E94570383EC90E00197F1F7CF911F91DD
:1008B0000F9108950F931F93CF93DF938C01D62F41
:1008C000C42F607F642B0E94410480E1D89FB00157
:1008D00011246C2BC801DF91CF911F910F910C94C3
:1008E0004104CF93DF9300D000D01F921F92CDB769
:1008F000DEB798E0E0E0F2E0DE01119601900D92A3
:100900009A95E1F790911303961708F46FEF262F4D
:1009100030E0220F331F41E050E04C0F5D1F240FE9
:10092000351FF9016081680F606840E08BE093E05B
:1009300028960FB6F894DEBF0FBECDBFDF91CF91E2
:100940000C945A0441E00E945A0481E090E008951A
:1009500085ED8093BC008091C8029091C902A0915E
:10096000CA02B091CB020796A11DB11D23E0B69536
:10097000A795979587952A95D1F72091BC0024FDDE
:1009800003C01092C60208954091C8025091C90256
:100990006091CA027091CB02452B462B472B69F31D
:1009A0000097A105B10541F02AE22A95F1F700C0B0
:1009B0000197A109B109E1CF8091C7020C94B0025F
:1009C0001F920F920FB60F9211242F933F938F9384
:1009D0009F93AF93BF938091F7029091F802A091FB
:1009E000F902B091FA023091F60223E0230F2D377D
:1009F00058F50196A11DB11D2093F6028093F702D0
:100A00009093F802A093F902B093FA028091FB024E
:100A10009091FC02A091FD02B091FE020196A11DF1
:100A2000B11D8093FB029093FC02A093FD02B09352
:100A3000FE02BF91AF919F918F913F912F910F90A7
:100A40000FBE0F901F90189526E8230F0296A11D48
:100A5000B11DD2CF1F920F920FB60F9211240BB679
:100A60000F922F933F934F935F936F937F938F9347
:100A70009F93AF93BF93EF93FF938091B900887FCB
:100A8000803609F44DC008F040C0883209F4A9C08E
:100A900028F5803109F49DC0C8F4882309F4FBC00F
:100AA000883009F496C0FF91EF91BF91AF919F916B
:100AB0008F917F916F915F914F913F912F910F9007
:100AC0000BBE0F900FBE0F901F901895883109F440
:100AD00088C0803241F78093C40214C0803409F486
:100AE0009DC040F48033B9F38833E9F68093C402A3
:100AF00085ECB0C0803509F485C0883509F496C00E
:100B0000883489F60E94A804CECF883909F48CC0B5
:100B100038F5883729F050F4883611F0803719F607
:100B200083E08093C60210929F0257C0883809F470
:100B30007BC0803919F0803809F0B5CF80919F02D1
:100B4000803208F071C0E0919F0281E08E0F8093A7
:100B50009F028091BB00F0E0E158FD4F80833DC0D3
:100B6000803B39F0E0F4803A09F479C0883A09F022
:100B70009ACF84E08093C60210927E0210927D028A
:100B8000E091F002F091F102199580917D028111BE
:100B90000FC081E080937D0210925D0209C0803C0D
:100BA00009F4A6CF883C09F4A3CF883B09F07BCF9A
:100BB000E0917E0281E08E0F80937E02F0E0E35AA6
:100BC000FD4F80818093BB0090917E0280917D02D9
:100BD00029C08091A1028093BB0085EC8093BC006A
:100BE00062CF9091C3028091C202981758F5E091AC
:100BF000C30281E08E0F8093C302F0E0EE55FD4FFB
:100C00008081E9CFE091C30281E08E0F8093C3021F
:100C10008091BB00F0E0EE55FD4F80839091C302C0
:100C20008091C2029817C8F285E8D8CFE091C3023C
:100C300081E08E0F8093C3028091BB00F0E0EE55FF
:100C4000FD4F80838091C50281115CCF81E080934C
:100C5000A00284EA8093BC001092C60224CF85ECE7
:100C60008093BC001092C60280919F02803230F4C3
:100C7000E0919F02F0E0E158FD4F108260919F02E9
:100C800070E0E091EE02F091EF028FE792E01995AB
:100C900010929F0208CF1092C40234CFEFEFF2E01F
:100CA0001382128288EE93E0A0E0B0E08483958303
:100CB000A683B7838CE092E091838083EBE0F3E03E
:100CC000138212828EE192E09183808387E2848393
:100CD00080E1818782E0828713860895789484B5C5
:100CE000826084BD84B5816084BD85B5826085BD28
:100CF00085B5816085BD80916E00816080936E00B6
:100D000010928100809181008260809381008091A7
:100D10008100816080938100809180008160809358
:100D200080008091B10084608093B1008091B00018
:100D300081608093B00080919100826080939100E7
:100D400080919100816080939100809190008160FA
:100D5000809390008091A10082608093A100809197
:100D6000A10081608093A1008091A00081608093A8
:100D7000A000809121018260809321018091210156
:100D80008160809321018091200181608093200106
:100D900080917A00846080937A0080917A008260EA
:100DA00080937A0080917A00816080937A008091AC
:100DB0007A00806880937A001092C1001092F50248
:100DC0001092F4021092F3021092F2020E94920228
:100DD0008BE392E09093F1028093F0028CE392E037
:100DE0009093EF028093EE0210921003809115030E
:100DF000823018F098E0909310038093130362E31D
:100E000070E080E090E00E940902609116038BE0A0
:100E100093E00E94570368EE73E080E090E00E9448
:100E2000090260E38BE093E00E944104CBE4D6E446
:100E3000CE010197F1F760E38BE093E00E9441045B
:100E40002197F1F760E38BE093E00E94410483E592
:100E500092E00197F1F760E28BE093E00E94410499
:100E600060911003606240E08BE093E00E945A04BE
:100E700084E08093110340E06CE08BE093E00E94FB
:100E80005A0440E061E08BE093E00E945A04CBE317
:100E9000DFE1CE010197F1F782E08093120340E099
:100EA00066E08BE093E00E945A0440E062E08BE051
:100EB00093E00E945A042197F1F788E0809316038B
:100EC00060E08BE093E00E945703C0E0D0E060E078
:100ED00085E00E94710446E050E066E272E08BE03B
:100EE00093E00E943D0261E082E00E9471044DE0C7
:100EF00050E06DE272E08BE093E00E943D022097AB
:100F000031F30E940000E3CFEE0FFF1F881F8BBF5D
:0C0F10000790F691E02D1994F894FFCFA3
:100F1C000000400014005400000000002803FB02F5
:100F2C003E04D102F402E102D20200000000A2044D
:100F3C003D023E046A0248656C6C6F21004D4943CA
:0C0F4C00524F44494749534F465400009F
:00000001FF
